{
  "contractName": "LicenseManager",
  "abi": [
    {
      "constant": true,
      "inputs": [],
      "name": "totalPayments",
      "outputs": [
        {
          "name": "",
          "type": "uint256"
        }
      ],
      "payable": false,
      "stateMutability": "view",
      "type": "function"
    },
    {
      "constant": true,
      "inputs": [],
      "name": "nonFungibleRegistry",
      "outputs": [
        {
          "name": "",
          "type": "address"
        }
      ],
      "payable": false,
      "stateMutability": "view",
      "type": "function"
    },
    {
      "constant": false,
      "inputs": [],
      "name": "unpause",
      "outputs": [],
      "payable": false,
      "stateMutability": "nonpayable",
      "type": "function"
    },
    {
      "constant": true,
      "inputs": [],
      "name": "paused",
      "outputs": [
        {
          "name": "",
          "type": "bool"
        }
      ],
      "payable": false,
      "stateMutability": "view",
      "type": "function"
    },
    {
      "constant": false,
      "inputs": [],
      "name": "withdrawPayments",
      "outputs": [],
      "payable": false,
      "stateMutability": "nonpayable",
      "type": "function"
    },
    {
      "constant": false,
      "inputs": [],
      "name": "renounceOwnership",
      "outputs": [],
      "payable": false,
      "stateMutability": "nonpayable",
      "type": "function"
    },
    {
      "constant": false,
      "inputs": [],
      "name": "pause",
      "outputs": [],
      "payable": false,
      "stateMutability": "nonpayable",
      "type": "function"
    },
    {
      "constant": true,
      "inputs": [],
      "name": "owner",
      "outputs": [
        {
          "name": "",
          "type": "address"
        }
      ],
      "payable": false,
      "stateMutability": "view",
      "type": "function"
    },
    {
      "constant": true,
      "inputs": [
        {
          "name": "",
          "type": "address"
        }
      ],
      "name": "payments",
      "outputs": [
        {
          "name": "",
          "type": "uint256"
        }
      ],
      "payable": false,
      "stateMutability": "view",
      "type": "function"
    },
    {
      "constant": false,
      "inputs": [
        {
          "name": "_newOwner",
          "type": "address"
        }
      ],
      "name": "transferOwnership",
      "outputs": [],
      "payable": false,
      "stateMutability": "nonpayable",
      "type": "function"
    },
    {
      "inputs": [
        {
          "name": "_nonFungibleRegistry",
          "type": "address"
        }
      ],
      "payable": false,
      "stateMutability": "nonpayable",
      "type": "constructor"
    },
    {
      "anonymous": false,
      "inputs": [
        {
          "indexed": false,
          "name": "tokenId",
          "type": "uint256"
        },
        {
          "indexed": false,
          "name": "seller",
          "type": "address"
        },
        {
          "indexed": false,
          "name": "priceInWei",
          "type": "uint256"
        },
        {
          "indexed": false,
          "name": "ERC20Contract",
          "type": "address"
        },
        {
          "indexed": false,
          "name": "numberOfERC20Tokens",
          "type": "uint256"
        }
      ],
      "name": "StartLicenseSale",
      "type": "event"
    },
    {
      "anonymous": false,
      "inputs": [
        {
          "indexed": false,
          "name": "tokenId",
          "type": "uint256"
        },
        {
          "indexed": false,
          "name": "seller",
          "type": "address"
        },
        {
          "indexed": false,
          "name": "price",
          "type": "uint256"
        },
        {
          "indexed": false,
          "name": "ERC20Contract",
          "type": "address"
        },
        {
          "indexed": false,
          "name": "numberOfERC20Tokens",
          "type": "uint256"
        }
      ],
      "name": "UpdateLicense",
      "type": "event"
    },
    {
      "anonymous": false,
      "inputs": [
        {
          "indexed": false,
          "name": "tokenId",
          "type": "uint256"
        },
        {
          "indexed": false,
          "name": "seller",
          "type": "address"
        }
      ],
      "name": "StopLicenseSale",
      "type": "event"
    },
    {
      "anonymous": false,
      "inputs": [
        {
          "indexed": false,
          "name": "tokenId",
          "type": "uint256"
        },
        {
          "indexed": false,
          "name": "seller",
          "type": "address"
        },
        {
          "indexed": false,
          "name": "buyer",
          "type": "address"
        },
        {
          "indexed": false,
          "name": "price",
          "type": "uint256"
        }
      ],
      "name": "PurchasedLicenseETH",
      "type": "event"
    },
    {
      "anonymous": false,
      "inputs": [
        {
          "indexed": false,
          "name": "tokenId",
          "type": "uint256"
        },
        {
          "indexed": false,
          "name": "seller",
          "type": "address"
        },
        {
          "indexed": false,
          "name": "buyer",
          "type": "address"
        },
        {
          "indexed": false,
          "name": "erc20address",
          "type": "address"
        },
        {
          "indexed": false,
          "name": "tokenAmount",
          "type": "uint256"
        }
      ],
      "name": "PurchasedLicenseERC20",
      "type": "event"
    },
    {
      "anonymous": false,
      "inputs": [],
      "name": "Pause",
      "type": "event"
    },
    {
      "anonymous": false,
      "inputs": [],
      "name": "Unpause",
      "type": "event"
    },
    {
      "anonymous": false,
      "inputs": [
        {
          "indexed": true,
          "name": "previousOwner",
          "type": "address"
        }
      ],
      "name": "OwnershipRenounced",
      "type": "event"
    },
    {
      "anonymous": false,
      "inputs": [
        {
          "indexed": true,
          "name": "previousOwner",
          "type": "address"
        },
        {
          "indexed": true,
          "name": "newOwner",
          "type": "address"
        }
      ],
      "name": "OwnershipTransferred",
      "type": "event"
    },
    {
      "constant": false,
      "inputs": [
        {
          "name": "_tokenId",
          "type": "uint256"
        },
        {
          "name": "_price",
          "type": "uint256"
        },
        {
          "name": "_ERC20Contract",
          "type": "address"
        },
        {
          "name": "_numberOfERC20Tokens",
          "type": "uint256"
        }
      ],
      "name": "startLicenseSale",
      "outputs": [],
      "payable": false,
      "stateMutability": "nonpayable",
      "type": "function"
    },
    {
      "constant": false,
      "inputs": [
        {
          "name": "_tokenId",
          "type": "uint256"
        },
        {
          "name": "_price",
          "type": "uint256"
        },
        {
          "name": "_ERC20Contract",
          "type": "address"
        },
        {
          "name": "_numberOfERC20Tokens",
          "type": "uint256"
        }
      ],
      "name": "updateLicenseSale",
      "outputs": [],
      "payable": false,
      "stateMutability": "nonpayable",
      "type": "function"
    },
    {
      "constant": false,
      "inputs": [
        {
          "name": "_tokenId",
          "type": "uint256"
        }
      ],
      "name": "stopLicenseSale",
      "outputs": [],
      "payable": false,
      "stateMutability": "nonpayable",
      "type": "function"
    },
    {
      "constant": false,
      "inputs": [
        {
          "name": "_tokenId",
          "type": "uint256"
        },
        {
          "name": "_txCounter",
          "type": "uint256"
        }
      ],
      "name": "purchaseLicenseETH",
      "outputs": [],
      "payable": true,
      "stateMutability": "payable",
      "type": "function"
    },
    {
      "constant": false,
      "inputs": [
        {
          "name": "_tokenId",
          "type": "uint256"
        },
        {
          "name": "_ERC20Contract",
          "type": "address"
        },
        {
          "name": "_numberOfERC20Tokens",
          "type": "uint256"
        },
        {
          "name": "_txCounter",
          "type": "uint256"
        }
      ],
      "name": "purchaseLicenseERC20",
      "outputs": [],
      "payable": false,
      "stateMutability": "nonpayable",
      "type": "function"
    },
    {
      "constant": false,
      "inputs": [
        {
          "name": "_newAddress",
          "type": "address"
        }
      ],
      "name": "setERC721Address",
      "outputs": [],
      "payable": false,
      "stateMutability": "nonpayable",
      "type": "function"
    },
    {
      "constant": true,
      "inputs": [
        {
          "name": "_tokenId",
          "type": "uint256"
        }
      ],
      "name": "isLicenseHolder",
      "outputs": [
        {
          "name": "",
          "type": "bool"
        }
      ],
      "payable": false,
      "stateMutability": "view",
      "type": "function"
    },
    {
      "constant": true,
      "inputs": [
        {
          "name": "_holder",
          "type": "address"
        }
      ],
      "name": "getLicensesHeldByAddress",
      "outputs": [
        {
          "name": "",
          "type": "uint256[]"
        }
      ],
      "payable": false,
      "stateMutability": "view",
      "type": "function"
    },
    {
      "constant": true,
      "inputs": [
        {
          "name": "_tokenId",
          "type": "uint256"
        }
      ],
      "name": "getLicenseHoldersByTokenId",
      "outputs": [
        {
          "name": "",
          "type": "address[]"
        }
      ],
      "payable": false,
      "stateMutability": "view",
      "type": "function"
    },
    {
      "constant": true,
      "inputs": [
        {
          "name": "_tokenId",
          "type": "uint256"
        }
      ],
      "name": "getERC20TokentInfoByTokenId",
      "outputs": [
        {
          "name": "",
          "type": "address"
        },
        {
          "name": "",
          "type": "uint256"
        }
      ],
      "payable": false,
      "stateMutability": "view",
      "type": "function"
    },
    {
      "constant": true,
      "inputs": [
        {
          "name": "_tokenId",
          "type": "uint256"
        }
      ],
      "name": "getPriceInWeiByTokenId",
      "outputs": [
        {
          "name": "",
          "type": "uint256"
        }
      ],
      "payable": false,
      "stateMutability": "view",
      "type": "function"
    },
    {
      "constant": true,
      "inputs": [
        {
          "name": "_tokenId",
          "type": "uint256"
        }
      ],
      "name": "isLicenseSellingByTokenId",
      "outputs": [
        {
          "name": "",
          "type": "bool"
        }
      ],
      "payable": false,
      "stateMutability": "view",
      "type": "function"
    },
    {
      "constant": true,
      "inputs": [
        {
          "name": "_tokenId",
          "type": "uint256"
        }
      ],
      "name": "getTxCounterByTokenId",
      "outputs": [
        {
          "name": "",
          "type": "uint256"
        }
      ],
      "payable": false,
      "stateMutability": "view",
      "type": "function"
    },
    {
      "constant": true,
      "inputs": [
        {
          "name": "_address",
          "type": "address"
        }
      ],
      "name": "getPendingPayment",
      "outputs": [
        {
          "name": "",
          "type": "uint256"
        }
      ],
      "payable": false,
      "stateMutability": "view",
      "type": "function"
    },
    {
      "constant": true,
      "inputs": [
        {
          "name": "_tokenId",
          "type": "uint256"
        }
      ],
      "name": "getLicense",
      "outputs": [
        {
          "name": "isSelling",
          "type": "bool"
        },
        {
          "name": "id",
          "type": "uint256"
        },
        {
          "name": "owner",
          "type": "address"
        },
        {
          "name": "price",
          "type": "uint256"
        },
        {
          "name": "ERC20Address",
          "type": "address"
        },
        {
          "name": "amountTokens",
          "type": "uint256"
        }
      ],
      "payable": false,
      "stateMutability": "view",
      "type": "function"
    }
  ],
  "bytecode": "0x60806040526000600260146101000a81548160ff02191690831515021790555034801561002b57600080fd5b506040516020806125818339810180604052810190808051906020019092919050505033600260006101000a81548173ffffffffffffffffffffffffffffffffffffffff021916908373ffffffffffffffffffffffffffffffffffffffff16021790555080600760006101000a81548173ffffffffffffffffffffffffffffffffffffffff021916908373ffffffffffffffffffffffffffffffffffffffff160217905550506124a1806100e06000396000f300608060405260043610610148576000357c0100000000000000000000000000000000000000000000000000000000900463ffffffff1680625b44871461014d578063110b0479146101785780632be79833146101fa5780633d2da71b146102515780633f4ba83a146102b25780634616179d146102c95780635b7ed1961461033d5780635c975abb1461037e5780636103d70b146103ad57806361cc3200146103c4578063715018a6146104095780637c54a04d146104205780638456cb591461044a5780638da5cb5b146104615780639a03d9a3146104b8578063b2dd1212146104fb578063c400648f146105bb578063cb7d28ef1461061c578063cf32c30814610661578063d68834911461068e578063e2982c2114610726578063e301d9861461077d578063efe19190146107de578063f2fde38b1461081f578063fd59025e14610862575b600080fd5b34801561015957600080fd5b506101626108b9565b6040518082815260200191505060405180910390f35b34801561018457600080fd5b506101a3600480360381019080803590602001909291905050506108bf565b6040518080602001828103825283818151815260200191508051906020019060200280838360005b838110156101e65780820151818401526020810190506101cb565b505050509050019250505060405180910390f35b34801561020657600080fd5b5061020f610960565b604051808273ffffffffffffffffffffffffffffffffffffffff1673ffffffffffffffffffffffffffffffffffffffff16815260200191505060405180910390f35b34801561025d57600080fd5b506102b060048036038101908080359060200190929190803573ffffffffffffffffffffffffffffffffffffffff1690602001909291908035906020019092919080359060200190929190505050610986565b005b3480156102be57600080fd5b506102c7610e57565b005b3480156102d557600080fd5b506102f460048036038101908080359060200190929190505050610f17565b604051808373ffffffffffffffffffffffffffffffffffffffff1673ffffffffffffffffffffffffffffffffffffffff1681526020018281526020019250505060405180910390f35b34801561034957600080fd5b5061036860048036038101908080359060200190929190505050610f71565b6040518082815260200191505060405180910390f35b34801561038a57600080fd5b50610393610f8e565b604051808215151515815260200191505060405180910390f35b3480156103b957600080fd5b506103c2610fa1565b005b3480156103d057600080fd5b506103ef600480360381019080803590602001909291905050506110c8565b604051808215151515815260200191505060405180910390f35b34801561041557600080fd5b5061041e6110f5565b005b61044860048036038101908080359060200190929190803590602001909291905050506111fa565b005b34801561045657600080fd5b5061045f611517565b005b34801561046d57600080fd5b506104766115d8565b604051808273ffffffffffffffffffffffffffffffffffffffff1673ffffffffffffffffffffffffffffffffffffffff16815260200191505060405180910390f35b3480156104c457600080fd5b506104f9600480360381019080803573ffffffffffffffffffffffffffffffffffffffff1690602001909291905050506115fe565b005b34801561050757600080fd5b50610526600480360381019080803590602001909291905050506116e0565b60405180871515151581526020018681526020018573ffffffffffffffffffffffffffffffffffffffff1673ffffffffffffffffffffffffffffffffffffffff1681526020018481526020018373ffffffffffffffffffffffffffffffffffffffff1673ffffffffffffffffffffffffffffffffffffffff168152602001828152602001965050505050505060405180910390f35b3480156105c757600080fd5b5061061a6004803603810190808035906020019092919080359060200190929190803573ffffffffffffffffffffffffffffffffffffffff16906020019092919080359060200190929190505050611824565b005b34801561062857600080fd5b5061064760048036038101908080359060200190929190505050611adb565b604051808215151515815260200191505060405180910390f35b34801561066d57600080fd5b5061068c60048036038101908080359060200190929190505050611bac565b005b34801561069a57600080fd5b506106cf600480360381019080803573ffffffffffffffffffffffffffffffffffffffff169060200190929190505050611da7565b6040518080602001828103825283818151815260200191508051906020019060200280838360005b838110156107125780820151818401526020810190506106f7565b505050509050019250505060405180910390f35b34801561073257600080fd5b50610767600480360381019080803573ffffffffffffffffffffffffffffffffffffffff169060200190929190505050611e3e565b6040518082815260200191505060405180910390f35b34801561078957600080fd5b506107dc6004803603810190808035906020019092919080359060200190929190803573ffffffffffffffffffffffffffffffffffffffff16906020019092919080359060200190929190505050611e56565b005b3480156107ea57600080fd5b50610809600480360381019080803590602001909291905050506121c2565b6040518082815260200191505060405180910390f35b34801561082b57600080fd5b50610860600480360381019080803573ffffffffffffffffffffffffffffffffffffffff1690602001909291905050506121e2565b005b34801561086e57600080fd5b506108a3600480360381019080803573ffffffffffffffffffffffffffffffffffffffff16906020019092919050505061224a565b6040518082815260200191505060405180910390f35b60015481565b60606004600083815260200190815260200160002080548060200260200160405190810160405280929190818152602001828054801561095457602002820191906000526020600020905b8160009054906101000a900473ffffffffffffffffffffffffffffffffffffffff1673ffffffffffffffffffffffffffffffffffffffff168152602001906001019080831161090a575b50505050509050919050565b600760009054906101000a900473ffffffffffffffffffffffffffffffffffffffff1681565b60008085600015156003600083815260200190815260200160002060040160009054906101000a900460ff16151514156109bf57600080fd5b8360066000898152602001908152602001600020541415156109e057600080fd5b600760009054906101000a900473ffffffffffffffffffffffffffffffffffffffff1673ffffffffffffffffffffffffffffffffffffffff16636352211e886040518263ffffffff167c010000000000000000000000000000000000000000000000000000000002815260040180828152602001915050602060405180830381600087803b158015610a7157600080fd5b505af1158015610a85573d6000803e3d6000fd5b505050506040513d6020811015610a9b57600080fd5b810190808051906020019092919050505092508273ffffffffffffffffffffffffffffffffffffffff163373ffffffffffffffffffffffffffffffffffffffff1614151515610ae957600080fd5b8573ffffffffffffffffffffffffffffffffffffffff166003600089815260200190815260200160002060020160009054906101000a900473ffffffffffffffffffffffffffffffffffffffff1673ffffffffffffffffffffffffffffffffffffffff16141515610b5957600080fd5b846003600089815260200190815260200160002060030154141515610b7d57600080fd5b8591508173ffffffffffffffffffffffffffffffffffffffff166323b872dd3385886040518463ffffffff167c0100000000000000000000000000000000000000000000000000000000028152600401808473ffffffffffffffffffffffffffffffffffffffff1673ffffffffffffffffffffffffffffffffffffffff1681526020018373ffffffffffffffffffffffffffffffffffffffff1673ffffffffffffffffffffffffffffffffffffffff1681526020018281526020019350505050602060405180830381600087803b158015610c5757600080fd5b505af1158015610c6b573d6000803e3d6000fd5b505050506040513d6020811015610c8157600080fd5b810190808051906020019092919050505050600460008881526020019081526020016000203390806001815401808255809150509060018203906000526020600020016000909192909190916101000a81548173ffffffffffffffffffffffffffffffffffffffff021916908373ffffffffffffffffffffffffffffffffffffffff16021790555050600560003373ffffffffffffffffffffffffffffffffffffffff1673ffffffffffffffffffffffffffffffffffffffff1681526020019081526020016000208790806001815401808255809150509060018203906000526020600020016000909192909190915055507f7e0d8a8d5c92bba4f2463234816a65eb09d1c2214097dbdc206dd287868f7a238784338989604051808681526020018573ffffffffffffffffffffffffffffffffffffffff1673ffffffffffffffffffffffffffffffffffffffff1681526020018473ffffffffffffffffffffffffffffffffffffffff1673ffffffffffffffffffffffffffffffffffffffff1681526020018373ffffffffffffffffffffffffffffffffffffffff1673ffffffffffffffffffffffffffffffffffffffff1681526020018281526020019550505050505060405180910390a150505050505050565b600260009054906101000a900473ffffffffffffffffffffffffffffffffffffffff1673ffffffffffffffffffffffffffffffffffffffff163373ffffffffffffffffffffffffffffffffffffffff16141515610eb357600080fd5b600260149054906101000a900460ff161515610ece57600080fd5b6000600260146101000a81548160ff0219169083151502179055507f7805862f689e2f13df9f062ff482ad3ad112aca9e0847911ed832e158c525b3360405160405180910390a1565b6000806003600084815260200190815260200160002060020160009054906101000a900473ffffffffffffffffffffffffffffffffffffffff16600360008581526020019081526020016000206003015491509150915091565b600060066000838152602001908152602001600020549050919050565b600260149054906101000a900460ff1681565b6000803391506000808373ffffffffffffffffffffffffffffffffffffffff1673ffffffffffffffffffffffffffffffffffffffff16815260200190815260200160002054905060008114151515610ff857600080fd5b803073ffffffffffffffffffffffffffffffffffffffff16311015151561101e57600080fd5b6110338160015461229290919063ffffffff16565b60018190555060008060008473ffffffffffffffffffffffffffffffffffffffff1673ffffffffffffffffffffffffffffffffffffffff168152602001908152602001600020819055508173ffffffffffffffffffffffffffffffffffffffff166108fc829081150290604051600060405180830381858888f193505050501580156110c3573d6000803e3d6000fd5b505050565b60006003600083815260200190815260200160002060040160009054906101000a900460ff169050919050565b600260009054906101000a900473ffffffffffffffffffffffffffffffffffffffff1673ffffffffffffffffffffffffffffffffffffffff163373ffffffffffffffffffffffffffffffffffffffff1614151561115157600080fd5b600260009054906101000a900473ffffffffffffffffffffffffffffffffffffffff1673ffffffffffffffffffffffffffffffffffffffff167ff8df31144d9c2f0f6b59d69b8b98abd5459d07f2742c4df920b25aae33c6482060405160405180910390a26000600260006101000a81548173ffffffffffffffffffffffffffffffffffffffff021916908373ffffffffffffffffffffffffffffffffffffffff160217905550565b600082600015156003600083815260200190815260200160002060040160009054906101000a900460ff161515141561123257600080fd5b82600660008681526020019081526020016000205414151561125357600080fd5b600760009054906101000a900473ffffffffffffffffffffffffffffffffffffffff1673ffffffffffffffffffffffffffffffffffffffff16636352211e856040518263ffffffff167c010000000000000000000000000000000000000000000000000000000002815260040180828152602001915050602060405180830381600087803b1580156112e457600080fd5b505af11580156112f8573d6000803e3d6000fd5b505050506040513d602081101561130e57600080fd5b810190808051906020019092919050505091508173ffffffffffffffffffffffffffffffffffffffff163373ffffffffffffffffffffffffffffffffffffffff161415151561135c57600080fd5b60036000858152602001908152602001600020600101543414151561138057600080fd5b61138a82346122ab565b600460008581526020019081526020016000203390806001815401808255809150509060018203906000526020600020016000909192909190916101000a81548173ffffffffffffffffffffffffffffffffffffffff021916908373ffffffffffffffffffffffffffffffffffffffff16021790555050600560003373ffffffffffffffffffffffffffffffffffffffff1673ffffffffffffffffffffffffffffffffffffffff1681526020019081526020016000208490806001815401808255809150509060018203906000526020600020016000909192909190915055507fedc22d1aa5634ce69c8342a962d4ccc4b8e9ef44ade7c30d4c402c8e8ffb1ccc84833334604051808581526020018473ffffffffffffffffffffffffffffffffffffffff1673ffffffffffffffffffffffffffffffffffffffff1681526020018373ffffffffffffffffffffffffffffffffffffffff1673ffffffffffffffffffffffffffffffffffffffff16815260200182815260200194505050505060405180910390a150505050565b600260009054906101000a900473ffffffffffffffffffffffffffffffffffffffff1673ffffffffffffffffffffffffffffffffffffffff163373ffffffffffffffffffffffffffffffffffffffff1614151561157357600080fd5b600260149054906101000a900460ff1615151561158f57600080fd5b6001600260146101000a81548160ff0219169083151502179055507f6985a02210a168e66602d3235cb6db0e70f92b3ba4d376a33c0f3d9434bff62560405160405180910390a1565b600260009054906101000a900473ffffffffffffffffffffffffffffffffffffffff1681565b6000600260009054906101000a900473ffffffffffffffffffffffffffffffffffffffff1673ffffffffffffffffffffffffffffffffffffffff163373ffffffffffffffffffffffffffffffffffffffff1614151561165c57600080fd5b600073ffffffffffffffffffffffffffffffffffffffff168273ffffffffffffffffffffffffffffffffffffffff161415151561169857600080fd5b81905080600760006101000a81548173ffffffffffffffffffffffffffffffffffffffff021916908373ffffffffffffffffffffffffffffffffffffffff1602179055505050565b60008060008060008060006003600089815260200190815260200160002090508060040160009054906101000a900460ff169650879550600760009054906101000a900473ffffffffffffffffffffffffffffffffffffffff1673ffffffffffffffffffffffffffffffffffffffff16636352211e896040518263ffffffff167c010000000000000000000000000000000000000000000000000000000002815260040180828152602001915050602060405180830381600087803b1580156117a857600080fd5b505af11580156117bc573d6000803e3d6000fd5b505050506040513d60208110156117d257600080fd5b81019080805190602001909291905050509450806001015493508060020160009054906101000a900473ffffffffffffffffffffffffffffffffffffffff169250806003015491505091939550919395565b6000600260149054906101000a900460ff1615151561184257600080fd5b600760009054906101000a900473ffffffffffffffffffffffffffffffffffffffff1673ffffffffffffffffffffffffffffffffffffffff16636352211e866040518263ffffffff167c010000000000000000000000000000000000000000000000000000000002815260040180828152602001915050602060405180830381600087803b1580156118d357600080fd5b505af11580156118e7573d6000803e3d6000fd5b505050506040513d60208110156118fd57600080fd5b810190808051906020019092919050505090508073ffffffffffffffffffffffffffffffffffffffff163373ffffffffffffffffffffffffffffffffffffffff1614151561194a57600080fd5b846003600087815260200190815260200160002060000181905550836003600087815260200190815260200160002060010181905550826003600087815260200190815260200160002060020160006101000a81548173ffffffffffffffffffffffffffffffffffffffff021916908373ffffffffffffffffffffffffffffffffffffffff160217905550816003600087815260200190815260200160002060030181905550611a0e6006600087815260200190815260200160002054600161235d565b60066000878152602001908152602001600020819055507f61cc416506a51999e467f7395348ef566e527c2716701eb727a3180d3b49241e8533868686604051808681526020018573ffffffffffffffffffffffffffffffffffffffff1673ffffffffffffffffffffffffffffffffffffffff1681526020018481526020018373ffffffffffffffffffffffffffffffffffffffff1673ffffffffffffffffffffffffffffffffffffffff1681526020018281526020019550505050505060405180910390a15050505050565b600080600090505b600560003373ffffffffffffffffffffffffffffffffffffffff1673ffffffffffffffffffffffffffffffffffffffff16815260200190815260200160002080549050811015611ba157600560003373ffffffffffffffffffffffffffffffffffffffff1673ffffffffffffffffffffffffffffffffffffffff16815260200190815260200160002081815481101515611b7957fe5b9060005260206000200154831415611b945760019150611ba6565b8080600101915050611ae3565b600091505b50919050565b600081600015156003600083815260200190815260200160002060040160009054906101000a900460ff1615151415611be457600080fd5b600260149054906101000a900460ff16151515611c0057600080fd5b600760009054906101000a900473ffffffffffffffffffffffffffffffffffffffff1673ffffffffffffffffffffffffffffffffffffffff16636352211e846040518263ffffffff167c010000000000000000000000000000000000000000000000000000000002815260040180828152602001915050602060405180830381600087803b158015611c9157600080fd5b505af1158015611ca5573d6000803e3d6000fd5b505050506040513d6020811015611cbb57600080fd5b810190808051906020019092919050505091508173ffffffffffffffffffffffffffffffffffffffff163373ffffffffffffffffffffffffffffffffffffffff16141515611d0857600080fd5b60006003600085815260200190815260200160002060040160006101000a81548160ff0219169083151502179055507f0a9a8970c8e8f2e39f0fbbc2f56036296e3f894e7d94872e9ead213537503f248333604051808381526020018273ffffffffffffffffffffffffffffffffffffffff1673ffffffffffffffffffffffffffffffffffffffff1681526020019250505060405180910390a1505050565b6060600560008373ffffffffffffffffffffffffffffffffffffffff1673ffffffffffffffffffffffffffffffffffffffff168152602001908152602001600020805480602002602001604051908101604052809291908181526020018280548015611e3257602002820191906000526020600020905b815481526020019060010190808311611e1e575b50505050509050919050565b60006020528060005260406000206000915090505481565b600084600115156003600083815260200190815260200160002060040160009054906101000a900460ff1615151415611e8e57600080fd5b600260149054906101000a900460ff16151515611eaa57600080fd5b600073ffffffffffffffffffffffffffffffffffffffff168473ffffffffffffffffffffffffffffffffffffffff1614158015611ee75750600083115b1515611ef257600080fd5b600760009054906101000a900473ffffffffffffffffffffffffffffffffffffffff1673ffffffffffffffffffffffffffffffffffffffff16636352211e876040518263ffffffff167c010000000000000000000000000000000000000000000000000000000002815260040180828152602001915050602060405180830381600087803b158015611f8357600080fd5b505af1158015611f97573d6000803e3d6000fd5b505050506040513d6020811015611fad57600080fd5b810190808051906020019092919050505091508173ffffffffffffffffffffffffffffffffffffffff163373ffffffffffffffffffffffffffffffffffffffff16141515611ffa57600080fd5b60a0604051908101604052808781526020018681526020018573ffffffffffffffffffffffffffffffffffffffff1681526020018481526020016001151581525060036000888152602001908152602001600020600082015181600001556020820151816001015560408201518160020160006101000a81548173ffffffffffffffffffffffffffffffffffffffff021916908373ffffffffffffffffffffffffffffffffffffffff1602179055506060820151816003015560808201518160040160006101000a81548160ff0219169083151502179055509050506120f46006600088815260200190815260200160002054600161235d565b60066000888152602001908152602001600020819055507fbd02ff8b2e9d802008f0fa13fd5fe6b70aa48b06704022fee2e769d41d563d208633878787604051808681526020018573ffffffffffffffffffffffffffffffffffffffff1673ffffffffffffffffffffffffffffffffffffffff1681526020018481526020018373ffffffffffffffffffffffffffffffffffffffff1673ffffffffffffffffffffffffffffffffffffffff1681526020018281526020019550505050505060405180910390a1505050505050565b600060036000838152602001908152602001600020600101549050919050565b600260009054906101000a900473ffffffffffffffffffffffffffffffffffffffff1673ffffffffffffffffffffffffffffffffffffffff163373ffffffffffffffffffffffffffffffffffffffff1614151561223e57600080fd5b61224781612379565b50565b60008060008373ffffffffffffffffffffffffffffffffffffffff1673ffffffffffffffffffffffffffffffffffffffff168152602001908152602001600020549050919050565b60008282111515156122a057fe5b818303905092915050565b6122fc816000808573ffffffffffffffffffffffffffffffffffffffff1673ffffffffffffffffffffffffffffffffffffffff1681526020019081526020016000205461235d90919063ffffffff16565b6000808473ffffffffffffffffffffffffffffffffffffffff1673ffffffffffffffffffffffffffffffffffffffff168152602001908152602001600020819055506123538160015461235d90919063ffffffff16565b6001819055505050565b6000818301905082811015151561237057fe5b80905092915050565b600073ffffffffffffffffffffffffffffffffffffffff168173ffffffffffffffffffffffffffffffffffffffff16141515156123b557600080fd5b8073ffffffffffffffffffffffffffffffffffffffff16600260009054906101000a900473ffffffffffffffffffffffffffffffffffffffff1673ffffffffffffffffffffffffffffffffffffffff167f8be0079c531659141344cd1fd0a4f28419497f9722a3daafe3b4186f6b6457e060405160405180910390a380600260006101000a81548173ffffffffffffffffffffffffffffffffffffffff021916908373ffffffffffffffffffffffffffffffffffffffff160217905550505600a165627a7a72305820f9b7199ab6d525b1a7a5dcd31425f0db8e2d99d35693e73d7a6cd49e71a5a1db0029",
  "source": "pragma solidity 0.4.24;\n\nimport \"./utils/SafeMath.sol\";\nimport \"./utils/ERC721.sol\";\nimport \"./utils/ERC20.sol\";\nimport \"./utils/Ownable.sol\";\nimport \"./utils/Pausable.sol\";\nimport \"./utils/PullPayment.sol\";\n\n\n/**\n* @title LicenseManager\n* @dev Contract that allows to create a license sale, as well as stop or update the license.\n* It also allows users to buy a license with Ether or any ERC20 token.\n*/\ncontract LicenseManager is PullPayment, Pausable{\n\n  /**\n  * @dev Implementation of SafeMath library\n  */\n  using SafeMath for uint256;\n\n  /**\n  * @dev Modifier that reverts if license is not selling\n  * @param _tokenId The license identifier\n  */\n  modifier isLicenseSelling(uint256 _tokenId){\n    if(tokenIdToLicense[_tokenId].isSelling == false) revert();\n    _;\n  }\n\n  /**\n  * @dev Modifier that reverts is license is selling\n  * @param _tokenId The license identifier\n  */\n  modifier isNotLicenseSelling(uint256 _tokenId){\n    if(tokenIdToLicense[_tokenId].isSelling == true) revert();\n    _;\n  }\n\n  /**\n  * @dev Event emmitted when license is up for sale\n  * @param tokenId License identifier, token id\n  * @param seller Seller address\n  * @param priceInWei License sale price in wei\n  * @param ERC20Contract Address of accepted ERC20 tokens\n  * @param numberOfERC20Tokens Number of accepted ERC20 tokens\n  */\n  event StartLicenseSale(uint256 tokenId, address seller, uint256 priceInWei, address ERC20Contract, uint256 numberOfERC20Tokens);\n\n  /**\n  * @dev Event emmitted when license is updated\n  * @param tokenId License identifier, token id\n  * @param seller Seller address\n  * @param price License sale price in wei\n  * @param ERC20Contract Address of accepted ERC20 tokens\n  * @param numberOfERC20Tokens Number of accepted ERC20 tokens\n  */\n  event UpdateLicense(uint256 tokenId, address seller, uint256 price, address ERC20Contract, uint256 numberOfERC20Tokens);\n\n  /**\n  * @dev Event emmitted when license sale is stopped\n  * @param tokenId License identifier, token id\n  * @param seller Seller address\n  */\n  event StopLicenseSale(uint256 tokenId, address seller);\n\n  /**\n  * @dev Event emmitted when a license is bought with ETH\n  * @param tokenId License identifier, token id\n  * @param seller Seller address\n  * @param buyer License buyer address\n  * @param price Price paid for the license in ETH\n  */\n  event PurchasedLicenseETH(uint256 tokenId, address seller, address buyer, uint256 price);\n\n  /**\n  * @dev Event emmitted when a license is bought with a ERC20 accepted token\n  * @param tokenId License identifier, token id\n  * @param seller Seller address\n  * @param buyer License buyer address\n  * @param erc20address Address of accepted ERC20 tokens\n  * @param tokenAmount Number of accepted ERC20 tokens\n  */\n  event PurchasedLicenseERC20(uint256 tokenId, address seller, address buyer, address erc20address, uint256 tokenAmount);\n\n  /**\n  * @dev License structure.\n  */\n  struct License{\n    uint256 tokenId;\n    uint256 price;\n    address ERC20Contract;\n    uint256 numberOfERC20Tokens;\n    bool isSelling;\n  }\n\n  /**\n  * @dev Mapping from token id to License structure.\n  */\n  mapping(uint256 => License) tokenIdToLicense;\n\n  /**\n  * @dev Mapping from token id to license holder addresses.\n  */\n  mapping(uint256 => address[]) tokenIdToLicenseHolders;\n\n  /**\n  * @dev Mapping from address to licenses held.\n  */\n  mapping(address => uint256[]) addressToLicensesHeld;\n\n  /**\n  * @dev Mapping from token id to transaction counter.\n  */\n  mapping(uint256 => uint256) tokenIdToTxCounter;\n\n  /**\n   * @dev Accepted ERC721 NFT contract.\n   */\n  ERC721 public nonFungibleRegistry;\n\n  /**\n   * @dev Contract constructor.\n   * @param _nonFungibleRegistry Address of the accepted ERC721 token.\n   */\n  constructor(address _nonFungibleRegistry) public {\n    nonFungibleRegistry = ERC721(_nonFungibleRegistry);\n  }\n\n  /**\n  * @dev Called by the owner of a deed or NFT to start a license sale. Throws if license is not selling\n  * or if the execution was paused. requires the caller to be the deed owner.\n  * @param _tokenId The token ID for the license sale.\n  * @param _price The license price in wei.\n  * @param _ERC20Contract The contract address for the ERC20 token accepted as exchange.\n  * @param _numberOfERC20Tokens The number of ERC20 tokens accepted for the sale.\n  */\n  function startLicenseSale(uint256 _tokenId, uint256 _price, address _ERC20Contract, uint256 _numberOfERC20Tokens)\n    public\n    isNotLicenseSelling(_tokenId)\n    whenNotPaused\n  {\n    require(_ERC20Contract != address(0) && _numberOfERC20Tokens > 0);\n\n    address assetOwner = nonFungibleRegistry.ownerOf(_tokenId);\n    require(msg.sender == assetOwner);\n\n    tokenIdToLicense[_tokenId] = License({\n      tokenId : _tokenId,\n      price : _price,\n      ERC20Contract : _ERC20Contract,\n      numberOfERC20Tokens : _numberOfERC20Tokens,\n      isSelling : true\n    });\n\n    tokenIdToTxCounter[_tokenId] = SafeMath.add(tokenIdToTxCounter[_tokenId], 1);\n\n    emit StartLicenseSale(_tokenId, msg.sender, _price, _ERC20Contract, _numberOfERC20Tokens);\n  }\n\n  /**\n  * @dev Called by the deed or NFT owner to update a current licese sale.\n  * @param _tokenId The token ID for the license sale.\n  * @param _price The license price in wei.\n  * @param _ERC20Contract The contract address for the ERC20 token accepted as exchange.\n  * @param _numberOfERC20Tokens The number of ERC20 tokens accepted for the sale.\n  */\n  function updateLicenseSale(uint256 _tokenId, uint256 _price, address _ERC20Contract, uint256 _numberOfERC20Tokens)\n    public\n    whenNotPaused\n  {\n\n    address assetOwner = nonFungibleRegistry.ownerOf(_tokenId);\n    require(msg.sender == assetOwner);\n\n    tokenIdToLicense[_tokenId].tokenId = _tokenId;\n    tokenIdToLicense[_tokenId].price = _price;\n    tokenIdToLicense[_tokenId].ERC20Contract = _ERC20Contract;\n    tokenIdToLicense[_tokenId].numberOfERC20Tokens = _numberOfERC20Tokens;\n\n    tokenIdToTxCounter[_tokenId] = SafeMath.add(tokenIdToTxCounter[_tokenId], 1);\n\n    emit UpdateLicense(_tokenId, msg.sender, _price, _ERC20Contract, _numberOfERC20Tokens);\n  }\n\n  /**\n  * @dev Called by the deed or NFT owner to stop a current licese sale.\n  * @param _tokenId The token ID for the license sale.\n  */\n  function stopLicenseSale(uint256 _tokenId)\n    public\n    isLicenseSelling(_tokenId)\n    whenNotPaused\n  {\n    address assetOwner = nonFungibleRegistry.ownerOf(_tokenId);\n    require(msg.sender == assetOwner);\n\n    tokenIdToLicense[_tokenId].isSelling = false;\n\n    emit StopLicenseSale(_tokenId, msg.sender);\n  }\n\n  /**\n  * @dev Called by the payer to buy a license with ETH.\n  * @param _tokenId The token ID for the license sale.\n  * @param _txCounter The tx counter for a specific _tokenId to prevent Transaction-Ordering Attacks\n  */\n  function purchaseLicenseETH(uint256 _tokenId, uint256 _txCounter)\n    public\n    payable\n    isLicenseSelling(_tokenId)\n  {\n    require(tokenIdToTxCounter[_tokenId] == _txCounter);\n\n    address assetOwner = nonFungibleRegistry.ownerOf(_tokenId);\n    require(msg.sender != assetOwner);\n\n    require(msg.value == tokenIdToLicense[_tokenId].price);\n\n    asyncSend(assetOwner, msg.value);\n\n    tokenIdToLicenseHolders[_tokenId].push(msg.sender);\n    addressToLicensesHeld[msg.sender].push(_tokenId);\n\n\n    emit PurchasedLicenseETH(_tokenId, assetOwner, msg.sender, msg.value);\n  }\n\n\n  /**\n  * @dev Called by the payer to buy a license with an accepted ERC20 token.\n  * @param _tokenId The token ID for the license sale.\n  * @param _ERC20Contract The accepted ERC20 token contract address.\n  * @param _numberOfERC20Tokens The amount of ERC20 tokens accepted.\n  * @param _txCounter The tx counter for a specific _tokenId to prevent Transaction-Ordering Attacks\n  */\n  function purchaseLicenseERC20(\n    uint256 _tokenId,\n    address _ERC20Contract,\n    uint256 _numberOfERC20Tokens,\n    uint256 _txCounter\n    )\n    public\n    isLicenseSelling(_tokenId)\n  {\n    require(tokenIdToTxCounter[_tokenId] == _txCounter);\n\n    address assetOwner = nonFungibleRegistry.ownerOf(_tokenId);\n    require(msg.sender != assetOwner);\n\n    require(tokenIdToLicense[_tokenId].ERC20Contract == _ERC20Contract);\n    require(tokenIdToLicense[_tokenId].numberOfERC20Tokens == _numberOfERC20Tokens);\n\n    ERC20 erc20Contract = ERC20(_ERC20Contract);\n\n    erc20Contract.transferFrom(\n      msg.sender,\n      assetOwner,\n      _numberOfERC20Tokens\n    );\n\n    tokenIdToLicenseHolders[_tokenId].push(msg.sender);\n    addressToLicensesHeld[msg.sender].push(_tokenId);\n\n\n    emit PurchasedLicenseERC20(_tokenId, assetOwner, msg.sender, _ERC20Contract, _numberOfERC20Tokens);\n  }\n\n  /**\n  * @dev Assigns a new accepted ERC721 address.\n  * @param _newAddress The new contract address.\n  */\n  function setERC721Address(address _newAddress) public onlyOwner {\n    require(_newAddress != address(0));\n    ERC721 _newAddressContract = ERC721(_newAddress);\n    nonFungibleRegistry = _newAddressContract;\n  }\n\n  /**\n  * @dev Returns whether the caller is a license holder for a specific token.\n  * @param _tokenId The token ID for the license held.\n  */\n  function isLicenseHolder(uint256 _tokenId) external view returns(bool){\n    for(uint256 i = 0; i < addressToLicensesHeld[msg.sender].length; i++){\n        if(_tokenId == addressToLicensesHeld[msg.sender][i]) {\n            return true;\n        }\n    }\n    return false;\n  }\n\n  /**\n  * @dev Returns a lists of licenses held by a given address.\n  * @param _holder Address for whom to query the licenses held.\n  */\n  function getLicensesHeldByAddress(address _holder) public view returns(uint256[]){\n    return addressToLicensesHeld[_holder];\n  }\n\n  /**\n  * @dev Returns the license holders by a given id.\n  * @param _tokenId Id queried for the license holders.\n  */\n  function getLicenseHoldersByTokenId(uint256 _tokenId) public view returns(address[]){\n    return tokenIdToLicenseHolders[_tokenId];\n  }\n\n  /**\n  * @dev Returns ERC20 token information of a license sale.\n  * @param _tokenId Id queried for ERC20 token info.\n  */\n  function getERC20TokentInfoByTokenId(uint256 _tokenId) public view returns(address, uint256){\n    return (tokenIdToLicense[_tokenId].ERC20Contract, tokenIdToLicense[_tokenId].numberOfERC20Tokens);\n  }\n\n  /**\n  * @dev Returns the price in wei for a license sale.\n  * @param _tokenId The license id for sale.\n  */\n  function getPriceInWeiByTokenId(uint256 _tokenId) public view returns (uint256) {\n    return tokenIdToLicense[_tokenId].price;\n  }\n\n  /**\n  * @dev Returns whether a token's license is selling or not\n  * @param _tokenId The license token Id for sale or not.\n  */\n  function isLicenseSellingByTokenId(uint256 _tokenId) public view returns (bool) {\n    return tokenIdToLicense[_tokenId].isSelling;\n  }\n\n  /**\n  * @dev Returns the transaction counter for a specific token.\n  * @param _tokenId The license token Id for sale\n  */\n  function getTxCounterByTokenId (uint256 _tokenId) public view returns (uint256){\n    return tokenIdToTxCounter[_tokenId];\n  }\n\n  /**\n  * @dev Returns the pending ether on the contract belonged to a user.\n  * @param _address User's address to whom the ETH belongs too.\n  */\n  function getPendingPayment(address _address) public view returns (uint256){\n    return payments[_address];\n  }\n\n  /**\n  * @dev Returns data referent to a specific license.\n  * @param _tokenId The id of the license we want to query.\n  */\n  function getLicense(uint256 _tokenId) public view\n    returns(\n      bool isSelling,\n      uint256 id,\n      address owner,\n      uint256 price,\n      address ERC20Address,\n      uint256 amountTokens\n      ){\n        License storage license = tokenIdToLicense[_tokenId];\n\n        isSelling = license.isSelling;\n        id = _tokenId;\n        owner = nonFungibleRegistry.ownerOf(_tokenId);\n        price = license.price;\n        ERC20Address = license.ERC20Contract;\n        amountTokens = license.numberOfERC20Tokens;\n      }\n\n}\n",
  "sourcePath": "/Users/luisfreitas/proofile/contracts/LicenseManager.sol",
  "compiler": {
    "name": "solc",
    "version": "0.4.24+commit.e67f0147.Emscripten.clang"
  },
  "schemaVersion": "2.0.1",
  "updatedAt": "2018-08-20T23:39:03.886Z"
}